:020000040800F2
:10000000D80400209D010008FB140008DF1300083D
:10001000F9140008FD030008191A00080000000088
:10002000000000000000000000000000FF140008B5
:10003000FF03000800000000FD140008011500087F
:10004000B7010008B7010008B7010008B7010008B0
:10005000B7010008B7010008B7010008B7010008A0
:10006000B7010008B7010008B7010008B701000890
:10007000B7010008B7010008B7010008B701000880
:10008000B7010008B7010008B7010008B701000870
:10009000B7010008B7010008B7010008B701000860
:1000A000B7010008B7010008B7010008B701000850
:1000B000C9150008B7010008B7010008B70100081A
:1000C000B7010008B7010008B7010008B701000830
:1000D000B7010008B7010008B7010008B701000820
:1000E000B7010008B7010008B7010008B701000810
:1000F000B7010008B7010008B7010008B701000800
:10010000B7010008B7010008B7010008B7010008EF
:10011000B7010008B7010008B7010008B7010008DF
:10012000B7010008B7010008B7010008B7010008CF
:10013000B7010008B7010008B7010008B7010008BF
:10014000B7010008B7010008B7010008B7010008AF
:10015000B7010008B7010008B7010008B70100089F
:10016000B7010008B7010008B7010008B70100088F
:10017000B7010008B7010008B7010008000000003F
:10018000B7010008B7010008DFF80CD000F090F8C4
:1001900000480047D11D0008D804002006488047C9
:1001A00006480047FEE7FEE7FEE7FEE7FEE7FEE75C
:1001B000FEE7FEE7FEE7FEE7751500088901000887
:1001C0002DE9F05F0546002092469B46884606468C
:1001D000814640241BE0284641464746224600F01F
:1001E00057F853465A46C01A914110D31146184643
:1001F000224600F03EF82D1A67EB01084F462246D2
:100200000120002100F035F817EB00094E41201EB7
:10021000A4F10104DFDC484631462A464346BDE8E6
:10022000F09FD2B201E000F8012B491EFBD27047CB
:100230000022F6E710B513460A4604461946FFF7B2
:10024000F0FF204610BD30B50B46014600202022AD
:10025000012409E021FA02F59D4205D303FA02F5D3
:10026000491B04FA02F52844151EA2F10102F1DC33
:1002700030BD202A04DB203A00FA02F1002070474A
:100280009140C2F1200320FA03F3194390407047D4
:10029000202A04DB203A21FA02F00021704721FADB
:1002A00002F3D040C2F12002914008431946704742
:1002B000064C074D06E0E06840F0010394E80700B3
:1002C00098471034AC42F6D3FFF762FF181E0008BF
:1002D000381E0008464910B54A6822F440324A6088
:1002E0004A6843681A434A6001684A6822F4807287
:1002F0004A6001684A68036942EA03224A60016869
:100300004A6822F040724A6001684A6883681A436A
:100310004A6001688A6822F400628A6001688A681B
:10032000C3681A438A60816A6FF07062D1420168C3
:100330008A6822F070628A6001688A680CD0836AD9
:100340001A438A6001688A6822F040528A60016814
:100350008A68C36A1A4301E022F040528A60016849
:100360008A6822F002028A6001688A68037E42EA93
:1003700043028A6090F82010002901684A680FD073
:1003800042F400624A6001684A6822F460424A60AE
:1003900001684A68174C436A04EB43331A4301E08F
:1003A00022F400624A600168CA6A22F47002CA62DA
:1003B0000168CA6A838B104C04EB03531A43CA6268
:1003C00001688A6822F400728A6001688A6890F87D
:1003D000303042EA43228A6001688A6822F48062EF
:1003E0008A6001688A68406942EA8020886010BD9E
:1003F0000023014000E0FFFF0000F0FFFEE7704730
:100400007047000078B50024009490F83C20012A41
:1004100019D0012280F83C200A6807230568092AC0
:1004200013D9EE680A3A02EB420293409E43EE6013
:100430000B788A680A3B03EB43039A400368DD6844
:100440002A43DA6010E0022078BD2E6902EB4202F6
:1004500093409E432E610B788A6803EB43039A40D6
:1004600003681D692A431A614A681F23072A13D2A9
:1004700005686E6B521E02EB820293409E436E63D0
:100480000B790A885B1E92B203EB83039A400368E0
:100490005D6B2A435A6327E005680D2A12D22E6B42
:1004A000D21F02EB820293409E432E630B790A888F
:1004B000DB1F92B203EB83039A4003681D6B2A4350
:1004C0001A6311E0EE6A0D3A02EB820293409E43FA
:1004D000EE620B790A880D3B92B203EB83039A40DC
:1004E0000368DD6A2A43DA62164B0568144A9D42A6
:1004F00006D10D68122D03D1556845F4800555606D
:1005000005689D4218D10B68102B01D0112B13D117
:10051000536843F400035360096810290CD10A4959
:100520000A4A0968B1FBF2F101EB8101490000E0E0
:10053000491E00910029FBD180F83C40002078BD85
:1005400000230140002001400C00002040420F0029
:100550000068C06C704770B504004FF0000503D010
:10056000206C002610B107E0012070BD204600F08D
:100570001DF8666484F83C60206CC00610D4206CC2
:1005800020F4885040F0020020642046FFF7A2FECD
:100590006664206C20F0020040F00100206400E05E
:1005A000012584F83C60284670BD000010B586B077
:1005B000044614216846FFF73BFE11492068884233
:1005C0001CD110480021026842F480720260006869
:1005D00000F4807005900B481438026842F0010264
:1005E0000260006800F001000590012000900320E7
:1005F000CDE901016946044800F07EF806B010BD5F
:1006000000200140443802400000024018B500219B
:10061000009190F83C20012A07D0012280F83C206C
:1006200002689368DB0702D011E0022018BD9368CE
:1006300043F0010393602A4A2A4B1268B2FBF3F29B
:1006400002EB420200E0521E0092002AFBD1026837
:100650009368DB0741D0036C40F20164A34343F489
:100660008073036453685B0505D5036C23F4005362
:1006700043F480530364036CDB0404D5436C23F020
:100680000603436400E0416480F83C1016496FF0B3
:100690002203136049680068CA06144906D08842DC
:1006A0001BD1816811F0405F13D016E08842F8D06A
:1006B0000F4A904203D1D1F80423D206F1D00D4A5B
:1006C00090420AD1D1F8041301F01F011029E8D398
:1006D00003E0816841F080418160002018BD000086
:1006E0000C00002040420F00002301400020014088
:1006F00000210140002201402DE9F84FDFF87CB1D4
:1007000000224FF001084FF0030A4FF00F090BF1E0
:10071000040E00BF0B6808FA02F42340A3426ED116
:100720004D68022D01D0122D0ED1D50800EB850C9D
:10073000DCF820505607F70E09FA07F6B5430E69A4
:10074000BE402E43CCF82060066855000F790AFAA7
:1007500005FC07F0030726EA0C06AF4037430760A5
:100760004E68012E05D0022E03D0112E01D0122E7C
:100770000ED18668CF6826EA0C06AF403743876003
:100780004668A6430C79C4F3001494403443446093
:10079000C6688C6826EA0C06AC403443C4604C68DA
:1007A000E40065D5364C256845F48045256024680D
:1007B00022F0030504F480440094324C2E19D6F83C
:1007C000084895072F0F09FA07F5AC432E4DA842AC
:1007D00001D1002524E02D4DA84201D101251FE0C3
:1007E0002B4DA84201D102251AE02A4DA84201D181
:1007F000032515E0284DA84202D1042510E037E07A
:10080000264DA84201D105250AE0254DA84201D177
:10081000062505E0234DA84201D1072500E0082563
:10082000BD402543C6F80858DBF800405D464E68D9
:100830009C43F60300D51C432C60DEF8004075464F
:100840004E689C43B60300D51C432C600B4D083505
:100850002C684E689C43F60200D51C432C60074D63
:100860000C352C684E689C43B60200D51C432C60A6
:10087000521C102AFFF44EAFBDE8F88F003C014037
:1008800044380240003001400000024000040240B1
:1008900000080240000C0240001002400014024018
:1008A00000180240001C02400148806870470000A8
:1008B000000000200248816802781144816070477E
:1008C000000000200B4810B5016841F40071016080
:1008D000016841F480610160016841F48071016048
:1008E000032000F06FF8002000F006F800F024F874
:1008F000002010BD003C024070B50D4D04464FF481
:100900007A712878B1FBF0F00A490968B1FBF0F080
:1009100000F0E2FA48B9102C07D200222146501EFE
:1009200000F030F800206C6070BD012070BD000048
:10093000000000200C0000200A4808B5016841F4BE
:1009400080410160006800F4804000900548001F6D
:10095000016841F080510160006800F08050009013
:1009600008BD000044380240002809DB00F01F02E7
:10097000012191404009800000F1E020C0F8001101
:1009800070470000F0B40E4B1B680C46C3F3022303
:10099000C3F10705042D00D90425191D072901D22B
:1009A000002300E0DB1E012606FA05F1491E214066
:1009B00099409E40761E16403143F0BC01F042B88B
:1009C0000CED00E0064900F0070208684FF6FF034F
:1009D000184040EA0220034A1043086070470000B4
:1009E0000CED00E00000FA052DE9F0470E46050089
:1009F00065D0DFF81481D8F80000F7B200F00F00DE
:100A0000B04207D288F80070D8F8000000F00F005C
:100A1000B04254D128683D4C810712D5400703D518
:100A2000206840F4E05020602878000703D5206853
:100A300040F4604020602068A96820F0F00008437E
:100A400020602878C0072DD030496868083901280F
:100A500012D0022813D0032811D009688907002971
:100A60002DDA216821F0030101432160FFF71CFF0B
:100A7000814641F2883A0EE009688903EFE7096888
:100A80008901ECE7FFF710FFA0EB0901514502D9FE
:100A90000320BDE8F0872068696800F00C00B0EB27
:100AA000810FEFD1D8F80010404601F00F01B1429C
:100AB00007D90770006800F00F00B04201D0012094
:100AC000E7E72878400705D52068E96820F4E0507A
:100AD000084320602878000706D52068296920F49B
:100AE000604040EAC100206000F036F82168084A02
:100AF000C1F30311515CC840064908600020FFF7AC
:100B0000FBFE0020C5E70000003C02400838024020
:100B1000001E00080C000020044805490068096810
:100B2000044AC1F38221515CC84070470C00002088
:100B300008380240101E000804480549006809688A
:100B4000044AC1F34231515CC84070470C00002098
:100B500008380240101E0008154810B5006810F053
:100B60000C02144813D01449042A0FD0082A0ED1BD
:100B70000F4C241F2268236802F03F025B0207D556
:100B80002068C0F38810A0FB010106E0084610BDF4
:100B90002168C1F38811A1FB00010023FFF710FBBE
:100BA0002168C1F30141491C4900B0FBF1F010BDBF
:100BB000083802400024F40040787D012DE9F84F08
:100BC000050076D02878DFF8F8B2BE4CC00749D0CF
:100BD000DBF800105846C1F38101012908D00068F4
:100BE000C0F3810002280AD1201D0068400206D50A
:100BF0002068800336D568680028E2D032E0686853
:100C0000B0F5803F10D0B0F5A02F206810D020F4B0
:100C100080302060206820F4802020606868A0B1C7
:100C2000FFF742FE06460CE0206840F48030F4E70F
:100C300040F480202060F7E7FFF736FE801B642831
:100C400073D820688003F7D50CE0FFF72DFE064629
:100C500005E000BFFFF728FE801B6428F0D820685D
:100C60008003F7D42878DFF8608280074FF000090E
:100C70003ED5DBF80010584611F00C0F09D0006883
:100C8000C0F3810002280BD18D48001F006840028C
:100C900006D42068800715D5E868012809D111E03D
:100CA000E868B8B10120C8F80000FFF7FDFD06466E
:100CB00005E002E1FFF7F8FD801B0228C0D820689C
:100CC0008007F7D52068296920F0F80040EAC100C4
:100CD00020600DE0C8F80090FFF7E6FD064604E04E
:100CE000FFF7E2FD801B02281FD820688007F7D499
:100CF0002878000722D5724E744869696C3671B144
:100D000001210160FFF7D0FD074604E0FFF7CCFDAD
:100D1000C01B022809D830688007F7D50EE0C0F85C
:100D20000090FFF7C1FD074605E083E0FFF7BCFD3B
:100D3000C01B02287ED830688007F7D42878400787
:100D400068D5DFF87CA100270AF1380ADAF800003C
:100D5000C0000BD4DAF8001041F08051CAF800103E
:100D6000DAF80000012700F080500090584E3068FB
:100D7000C00510D4306840F480703060FFF794FDF7
:100D8000009005E0FFF790FD0099401A022851D825
:100D90003068C005F6D54A4EA868683601280FD0DD
:100DA0000528306810D020F001003060306820F055
:100DB00004003060A868B8B1FFF776FD00900FE03E
:100DC000306840F00100F4E740F004003060F7E7DD
:100DD000FFF76AFD0099411A41F28830814264D8D8
:100DE00030688007F4D50EE0FFF75EFD009007E065
:100DF000FFF75AFD0099411A41F28830814254D8D8
:100E000030688007F4D42FB1DAF8001021F0805157
:100E1000CAF80010A869C0B3DBF80010C1F3810163
:100E200002294AD00228484607D0C8F86000FFF7D8
:100E30003BFD00E039E005463AE04746C8F860006F
:100E4000FFF732FD064604E0FFF72EFD801B022867
:100E50002BD820688001F7D4D5E907010843A96A97
:100E60001C4A490802EB01416A6A41EA82110843BF
:100E700095F82C1040EA01611148001F0160012023
:100E80003866FFF711FD054605E014E0FFF70CFD9D
:100E9000401B022809D820688001F7D50BE000BF6D
:100EA000FFF702FD401B022802D90320BDE8F88F9E
:100EB00020688001F4D40020F8E70120F6E7000064
:100EC000083802400038024000004742800E474286
:100ED000007000400000FFFF10B5401EB0F1807FA1
:100EE00001D3012010BD4FF0E02460610F21601795
:100EF00000F0A8FD0020A06107202061002010BDA7
:100F00007047704770B590F83C20012A19D0012431
:100F100000F83C4F0222427050F83C3C5A689D68F1
:100F200022F070060A684968324325F0800529439B
:100F30005A6050F83C2C91604470002101700846C2
:100F400070BD022070BD10B5040003D094F83D00C0
:100F500010B107E0012010BD002084F83C002046BD
:100F600000F00CF8022084F83D00211D206800F0FC
:100F700031FB012084F83D00002010BD08B5006859
:100F8000B0F1804F12D10A48016841F001010160BF
:100F90000068002200F00100009011461C20FFF7BD
:100FA000F1FCBDE808401C20FFF7DEBC08BD0000D6
:100FB000403802400168CA6842F00102CA60006815
:100FC000816801F00701062903D0016841F00101A1
:100FD00001600020704770B5044690F83C0001287D
:100FE00017D0012584F83C50022084F83D00206889
:100FF000826822F0770222F47F42826008685028DB
:1010000030D00DDC20284DD005DC98B310283BD122
:1010100048E0022070BD302844D0402834D139E067
:10102000602828D0702806D0B0F5805F2CD0B0F5AD
:10103000005F29D10AE0CB68D1E90121206800F0E6
:101040002DFB2068816841F0770109E0CB68D1E988
:101050000121206800F022FB2068816841F4804172
:10106000816011E0CA684968206800F029FB5021BE
:10107000206807E016E0CA684968206800F031FB84
:101080006021206800F014FB84F83D50002084F8B3
:101090003C0070BDCA684968206800F011FB40211F
:1010A0002068EFE7226801461046EBE7704770B50D
:1010B0000446006801694FF00005C943890715D44B
:1010C000C168C943890711D4E91E01610120207755
:1010D000206880698007204602D0FFF7E7FF04E020
:1010E00000F098F8204600F096F82577206801690E
:1010F000C943490717D4C168C943490713D46FF0DE
:1011000004010161022020772068806910F4407F8B
:10111000204602D0FFF7CAFF04E000F07BF820462B
:1011200000F079F8257720680169C943090716D4CA
:10113000C168C943090712D46FF008010161042096
:1011400020772068C0698007204602D0FFF7AEFFF5
:1011500004E000F05FF8204600F05DF82577206895
:101160000169C943C90617D4C168C943C90613D464
:101170006FF010010161082020772068C06910F429
:10118000407F204602D0FFF791FF04E000F042F8D4
:10119000204600F040F8257720680169C943C90757
:1011A00008D1C168C943C90704D1891E016120461D
:1011B00000F032F820680169C943090609D4C16802
:1011C000C943090605D46FF0800101612046FFF78D
:1011D00097FE20680169C943490609D4C168C9431B
:1011E000490605D46FF040010161204600F034F853
:1011F00020680169C94389060BD4C168C9438906BF
:1012000007D46FF0200101612046BDE87040FFF770
:1012100078BE70BD704770473EB504460A48FFF778
:1012200097F9C0F30B0209A1684600F0F7FB0A2307
:1012300005226946074800F075F80348FFF7E6F90C
:101240002046FFF7B7FE3EBD100000202530346475
:101250000A00000098000020704770B5040004D018
:1012600094F83900002510B106E0012070BD84F823
:101270003850204600F022F8242084F839002068F5
:10128000C16821F40051C160204600F03DFA206899
:10129000016921F4904101612068416921F02A012E
:1012A00041612068C16841F40051C160E5632020BC
:1012B00084F8390084F83A00002070BD10B586B07B
:1012C000044614216846FEF7B3FF1349206888429C
:1012D00020D11248016841F400310160006800F437
:1012E000003005900D481038016841F0010101609F
:1012F0000068694600F0010005900C200090022073
:1013000001900120029003200390072004900448DC
:10131000FFF7F2F906B010BD00440040403802402B
:10132000000002402DE9F843044690F839001F46BA
:1013300016460D46202850D1A5B19EB194F838002C
:1013400001284AD0012084F838004FF00008C4F882
:101350003C80212084F83900FFF7A6FAA684814654
:10136000E68426E00120BDE8F883E08C401EE0849E
:10137000A0684B46B0F5805F4FF000024FF080014F
:101380002046009703D000F015FBE8B90DE000F00F
:1013900011FBC8B928882168C0F30800486020699B
:1013A00008B16D1C05E0AD1C03E0216815F8010BC8
:1013B0004860E08C0028D8D14B46002240212046CE
:1013C000009700F0F7FA08B10320CCE7202084F85A
:1013D000390084F838800020C5E70220C3E7FEE723
:1013E0007FB5002414480094019402941149039499
:1013F000C0E90014846001250461057680F820406E
:101400000E49C0E90A14C561C46080F830404561E6
:10141000FFF7A1F808B1FEF7F3FFCDE900456946F3
:1014200005480294FEF7EEFF002801D0FEF7E8FF22
:101430007FBD000000200140100000200100000FCF
:10144000054808B5016841F001010160006800F03D
:101450000100009008BD00003038024010B586B091
:1014600000241648009401940294039404944FF0CD
:101470008041059401600121C0E9011443F67F61B8
:10148000C0E903148461FFF75EFD08B1FEF7B8FF01
:101490004FF48050009069460848FFF79CFD08B162
:1014A000FEF7AEFF049404A904480594FFF72AFD53
:1014B000002801D0FEF7A4FF06B010BD58000020A0
:1014C0000C4810B50A4901604FF4E1314160002138
:1014D00081600C22C160C0E904128161C161FFF723
:1014E000BCFE002803D0BDE81040FEF789BF10BD48
:1014F0000044004098000020FEE7704770477047A6
:10150000FFF7D8B910B592B030216846FEF790FECB
:1015100014210CA8FEF78CFE14480024016841F049
:1015200080510160006800F08050119010480168FF
:1015300041F4804101600068069400F480401190FD
:101540000220009001200390102004906846FFF7CD
:1015500035FB0F20CDE90C040E940F9400210CA84C
:101560001094FFF741FA12B010BD0000403802405D
:10157000007000401048016841F4700101600F489C
:10158000016841F0010101600C4A0021083211603C
:1015900002680B4B1A400260031D0A4A1A60026877
:1015A00022F48022026005480C300160024958068E
:1015B000803908607047000088ED00E00038024084
:1015C000FFFFF6FE103000240148FFF770BD000059
:1015D00058000020F0B50268254C264D264E274FB6
:1015E000274B4FF0804CA04209D0604507D0A8425D
:1015F00005D0B04203D0B84201D0984204D122F0C5
:10160000700E4A6842EA0E02A0421BD0604519D013
:10161000A84217D0B04215D0B84213D0984211D08A
:10162000184DA8420ED0184DA8420BD0174DA84215
:1016300008D0174DA84205D0164DA84202D0164D2D
:10164000A84203D122F44075CA682A434D6922F0AA
:1016500080022A4302608A68C2620A688262A042EB
:1016600001D0984201D10969016301214161F0BDB6
:10167000000001400004004000080040000C004051
:101680000004014000400140004401400048014086
:1016900000180040001C00400020004010B5846885
:1016A00042EA032224F47F440A432243826010BDAD
:1016B000826822F070020A4342F00701816070479D
:1016C00010B5036A046A24F001040462846924F0FA
:1016D000F00444EA021423F00A020A43846102621D
:1016E00010BD10B5036A23F0100303628369046A16
:1016F00023F4704343EA023224F0A00343EA0111C9
:101700008261016210BD00002DE9F04104460068CD
:101710000169E26821F44051114301612169A06827
:10172000E26908436169114322680843D16849F2BC
:101730000C6399430143D16020684169A26921F497
:10174000407111434161E2696425B2F5004F974849
:10175000974922684FF032083FD08A4201D0824236
:101760007CD1FFF7E9F900EBC00101EB00106168E3
:101770008900B0FBF1F6FFF7DFF900EBC00101EBE8
:10178000001061688900B0FBF1F0B0FBF5F06FF07C
:101790001801484306EB800108EB0110B0FBF5F09F
:1017A00000F0F006FFF7C8F900EBC00101EB0010F4
:1017B00061688900B0FBF1F0B0FBF5F006EB0016B4
:1017C000FFF7BAF900EBC00101EB00106168890076
:1017D000B0FBF1F7FFF7B0F9D2E08A4201D08242C4
:1017E0003DD1FFF7A9F900EBC00101EB00106168E2
:1017F0004900B0FBF1F0B0FBF5F00601FFF79CF9F2
:1018000000EBC00101EB001061684900B0FBF1F78B
:10181000FFF792F900EBC00101EB0010616849008D
:10182000B0FBF1F0B0FBF5F06FF01801484307EBA7
:10183000800108EBC100B0FBF5F000F0F80006EB0A
:101840004006FFF779F900EBC00101EB0010616879
:101850004900B0FBF1F7FFF76FF93CE055E0FFF707
:101860005BF900EBC00101EB001061684900B0FBBF
:10187000F1F0B0FBF5F00601FFF74EF900EBC00107
:1018800001EB001061684900B0FBF1F7FFF744F984
:1018900000EBC00101EB001061684900B0FBF1F002
:1018A000B0FBF5F06FF01801484307EB800108EB3F
:1018B000C100B0FBF5F000F0F80006EB4006FFF7C2
:1018C0002BF900EBC00101EB001061684900B0FB8F
:1018D000F1F7FFF721F900EBC00101EB001061689F
:1018E0004900B0FBF1F0B0FBF5F06FF01801484390
:1018F00007EB800108EBC100B0FBF5F000F007003A
:10190000216830448860BDE8F081FFF705F900EBFD
:10191000C00101EB001061688900B0FBF1F6FFF730
:10192000FBF800EBC00101EB001061688900B0FB1F
:10193000F1F0B0FBF5F06FF01801484306EB8001C1
:1019400008EB0110B0FBF5F000F0F006FFF7E4F84B
:1019500000EBC00101EB001061688900B0FBF1F001
:10196000B0FBF5F006EB0016FFF7D6F800EBC00170
:1019700001EB001061688900B0FBF1F7FFF7CCF8CC
:1019800000EBC00101EB001061688900B0FBF1F0D1
:10199000B0FBF5F06FF01801484307EB800108EB4E
:1019A0000110B0FBF5F000F00F00A9E700140140B2
:1019B000001001402DE9F041984617460E460446B6
:1019C000069D1DE0681C1BD02DB1FEF76DFFA0EB3E
:1019D0000800A84214D92068C16821F4D071C16000
:1019E0002068416921F001014161202084F839001B
:1019F00084F83A00002084F838000320BDE8F08124
:101A00002068006836EA000004D00020B842D9D02F
:101A10000020F3E70120F9E7FEE700000FB4084BD0
:101A200010B504A902AA039800F02CF8044602A9F4
:101A3000002000F0C8F9204610BC5DF814FB00003F
:101A4000C71D00080907090E002804DB00F1E0208B
:101A500080F80014704700F00F0000F1E02080F8DB
:101A6000141D704702E008C8121F08C1002AFAD1ED
:101A700070477047002001E001C1121F002AFBD10E
:101A8000704700002DE9FF4F8BB0884605460026C1
:101A900006E025280BD0DDE90D1290476D1C761C61
:101AA00028780028F5D10FB03046BDE8F08F00242B
:101AB000A146A2460122AE4900E0044315F8013FC9
:101AC000203B02FA03F00842F7D128782A2810D0E8
:101AD0006FF02F022878A0F13001092915D809EB01
:101AE000890102EB410144F0020400EB01096D1C85
:101AF000F0E758F8041B5FEA010903D544F40054E9
:101B0000C9F1000944F002046D1C28782E2817D171
:101B100015F8010F44F004042A280ED06FF02F02AC
:101B20002878A0F1300109290AD80AEB8A0102EBD2
:101B3000410100EB010A6D1CF2E758F804AB6D1C83
:101B400028786C280FD006DC4C2817D068280DD0D8
:101B50006A2814D104E0742810D07A280FD10DE03F
:101B600044F400140AE044F4801401E044F4401406
:101B70006978814202D104F580146D1C6D1C2878AF
:101B8000692865D006DC00288DD0632827D064281A
:101B900006D15DE06E2808D073282AD0752877D04A
:101BA000DDE90D129047761CE0E0C4F302500228F4
:101BB00009D003280DD0D8F8001004280DD00E60ED
:101BC00008F10408D2E0D8F80010F217C1E9006269
:101BD000F6E7D8F800100E80F2E70E70F0E718F87C
:101BE000041B8DF8001000208DF80100EB46012049
:101BF00003E058F804BB4FF0FF3061074FF00007D7
:101C000001D40AE07F1C57450DDA8742FADB1BF846
:101C100007100029F6D106E07F1C8742FCDB1BF889
:101C200007100029F8D1DDE90D23A9EB0700814653
:101C3000214600F0B1F83044C61904E0DDE90D1288
:101C40001BF8010B90477F1EF8D22146484688E0DA
:101C500058F8040BC4F302514FF00A0B032900D1CA
:101C600000B2042900D140B2002802DA40422D21FE
:101C700002E0210505D52B218DF82410012104E077
:101C800006E0E10710D02021F6E708AF089113E045
:101C900058F8040BC4F302514FF00A0B032900D18A
:101CA00080B2042900D1C0B20021EEE75946FEF708
:101CB000CAFA303107F8011D0028F7D1ADEB070053
:101CC00000F1200B600702D524F4803401E04FF0CE
:101CD000010ADA4502DDAAEB0B0000E00020824693
:101CE00000EB0B0108980144A9EB01000A90E00306
:101CF00006D4DDE90D2321460A9800F04DF806448C
:101D00004FF0000908E009A911F80900DDE90D12FA
:101D1000904709F10109761C08998945F3DBE00336
:101D20000CD5DDE90D2321460A9800F035F806446C
:101D300004E0DDE90D1230209047761CBAF1000175
:101D4000AAF1010AF5DC05E0DDE90D1217F8010B37
:101D50009047761CBBF10001ABF1010BF4DC0A9853
:101D60002146DDE90D2300F005F806446D1C97E6D9
:101D7000092801002DE9F041044600251E461746BA
:101D8000880404D405E039462020B0476D1C641E49
:101D9000F9D52846BDE8F0812DE9F041044600253B
:101DA0001E469046C80301D5302700E0202788044E
:101DB00004D505E041463846B0476D1C641EF9D590
:101DC0002846BDE8F0810A68531C0B60107070470C
:101DD000FEF778FDFFF796FBFFF732FBFFF700FBFE
:101DE000FFF73CFBFFF76CFB0348FEF70FFC0348D3
:101DF000FFF7E0F8FEE70000100000205800002088
:101E000000000000000000000102030406070809AA
:101E10000000000001020304381E0008000000203A
:101E200010000000641A0008481E0008100000207E
:101E3000C8040000741A000801000000100000002F
:081E4000000000000024F40082
:040000050800018965
:00000001FF
